:020000040000FA
:100000000C9462000C948A000C948A000C948A0070
:100010000C948A000C948A000C948A000C948A0038
:100020000C948A000C948A000C948A000C948A0028
:100030000C948A000C948A000C948A000C948A0018
:100040000C948D020C948A000C948A000C948A0003
:100050000C948A000C948A000C948A000C948A00F8
:100060000C948A000C948A000000000024002700F1
:100070002A0000000000250028002B0000000000DE
:1000800023002600290004040404040404040202DA
:100090000202020203030303030301020408102007
:1000A0004080010204081020010204081020000012
:1000B0000008000201000003040700000000000027
:1000C0000000870311241FBECFEFD8E0DEBFCDBFF5
:1000D00011E0A0E0B1E0EAE5F7E002C005900D9282
:1000E000A433B107D9F721E0A4E3B1E001C01D9228
:1000F000A535B207E1F710E0C2E6D0E004C02197D1
:10010000FE010E94A503C136D107C9F70E94D7029C
:100110000C94AB030C940000AF92BF92CF92DF928D
:10012000EF92FF920F931F93CF93DF936C017B01AC
:100130008B01040F151FEB015E01AE18BF08C0173D
:10014000D10759F06991D601ED91FC910190F081B0
:10015000E02DC6010995892B79F7C501DF91CF9173
:100160001F910F91FF90EF90DF90CF90BF90AF90D5
:100170000895833081F028F4813099F08230A9F01D
:1001800008958730A9F08830C9F08430B1F48091A7
:1001900080008F7D03C0809180008F7780938000E6
:1001A000089584B58F7784BD089584B58F7DFBCF86
:1001B0008091B0008F778093B00008958091B00057
:1001C0008F7DF9CF1F93CF93DF93282F30E0F90174
:1001D000E255FF4F8491F901E656FF4FD491F901A2
:1001E000EA57FF4FC491CC23A9F0162F81110E942A
:1001F000B900EC2FF0E0EE0FFF1FEE58FF4FA59176
:10020000B4918FB7F894EC91111108C0D095DE230A
:10021000DC938FBFDF91CF911F910895DE2BF8CF34
:10022000CF93DF9390E0FC01E656FF4F24918A576D
:100230009F4FFC0184918823D1F090E0880F991F93
:10024000FC01E859FF4FA591B491FC01EE58FF4F16
:10025000C591D49161110EC09FB7F8948C91E22F93
:10026000E0958E238C932881E223E8839FBFDF9162
:10027000CF9108958FB7F894EC91E22BEC938FBF58
:10028000F6CF089590E080E00895CF93DF93EC01DE
:1002900060E08E810E94E20061E08E810E94E200B7
:1002A00060E08E810E94E2008BE891E00197F1F717
:1002B000DF91CF910895CF92DF92EF92FF920F934B
:1002C0001F93CF93DF936C017C0187E0E80EF11C54
:1002D000D0E0C0E0062F10E0B8010C2E02C07595EA
:1002E00067950A94E2F76170F70181917F010E949E
:1002F000E2002196C430D10579F7C601DF91CF9194
:100300001F910F91FF90EF90DF90CF900C944501DB
:10031000CF92DF92EF92FF920F931F93CF93DF93D1
:10032000EC01F62E642F8C810E94E2008D818F3FBC
:1003300019F060E00E94E2000F2D10E08F8584FF2D
:1003400025C06E0187E0C80ED11CF12CE12CB8014C
:100350000E2C02C0759567950A94E2F76170F6015C
:1003600081916F010E94E200FFEFEF1AFF0A88E01F
:10037000E816F10461F7CE01DF91CF911F910F9143
:10038000FF90EF90DF90CF900C944501B80184E08E
:10039000759567958A95E1F7CE010E945B016F2DF7
:1003A000CE01DF91CF911F910F91FF90EF90DF90E1
:1003B000CF900C945B0140E0682F8DE391E00C94AA
:1003C0008801CF93DF93823029F490914C0198609B
:1003D00090934C01809350011092510180E48093DE
:1003E000520180E18093530180E58093540161E0E4
:1003F000809141010E941001809142018F3F19F0CC
:1004000061E00E94100161E0809143010E941001AF
:10041000CDE3D1E09E012D53314080914C0184FD0C
:100420000BC084E090E021962817390744F461E07E
:100430008E810E941001EECF88E090E0F4CF8BE334
:100440009DE00197F1F760E0809141010E94E20098
:1004500060E0809143010E94E200809142018F3F61
:1004600019F060E00E94E20080914C0184FD39C0E7
:1004700063E08DE391E00E945B01CBE4D6E4CE0122
:100480000197F1F763E08DE391E00E945B01219712
:10049000F1F763E08DE391E00E945B0183E592E078
:1004A0000197F1F762E08DE391E00E945B0180919A
:1004B0004C0180620E94DB0184E080934D018CE05E
:1004C0000E94DB0181E00E94DB018BE39FE1019749
:1004D000F1F782E080934E0186E0DF91CF910C949A
:1004E000DB0180620E94DB018BE496E40197F1F767
:1004F00080914C0180620E94DB0183E592E00197CC
:10050000F1F780914C0180620E94DB01D0CF41E085
:100510000E94880181E090E008951F920F920FB62B
:100520000F9211242F933F938F939F93AF93BF9379
:100530008091390190913A01A0913B01B0913C0129
:100540003091380123E0230F2D3758F50196A11D76
:10055000B11D209338018093390190933A01A09303
:100560003B01B0933C018091340190913501A09101
:100570003601B09137010196A11DB11D8093340160
:1005800090933501A0933601B0933701BF91AF919D
:100590009F918F913F912F910F900FBE0F901F90C1
:1005A000189526E8230F0296A11DB11DD2CF78948D
:1005B00084B5826084BD84B5816084BD85B5826068
:1005C00085BD85B5816085BD80916E008160809319
:1005D0006E00109281008091810082608093810082
:1005E0008091810081608093810080918000816092
:1005F000809380008091B10084608093B1008091ED
:10060000B00081608093B00080917A008460809314
:100610007A0080917A00826080937A0080917A00DB
:10062000816080937A0080917A00806880937A005C
:100630001092C10061E088E00E94100160E087E054
:100640000E94100182E00E94E10149E050E06CE06C
:1006500071E08DE391E00E948C00C5EBD0E001EAEF
:1006600010E09DE8E92E90E0F92E20E0C22E20E077
:10067000D22EFE018491F801A490F701B490BB2022
:1006800079F181110E94B900EB2DF0E0EE0FFF1F10
:10069000E458FF4FA591B4918C91A82209F160E034
:1006A00088E00E94E200E0915001E230B8F4E150AD
:1006B000F0E0E35CFE4F848980680E94DB014CE03F
:1006C00050E066E171E08DE391E00E948C00C1147E
:1006D000D10409F4CECF0E940000CBCFE1E0E8CFF7
:1006E00061E088E00E94E200E0915001E23068F4AD
:1006F000E150F0E0E35CFE4F848980680E94DB01FA
:1007000040E150E063E271E0DECFE1E0F2CFEDE303
:10071000F1E01382128284E091E09183808383E090
:1007200084838FEF858382E086838CE087838BE0F0
:1007300080878AE0818789E0828713861486158600
:100740001686178681E00C94E101EE0FFF1F0590DD
:10075000F491E02D0994F894FFCF00000000870287
:100760008C00420141014B2E522E474F4B554C00FD
:1007700047617320646574656374656400476173E1
:0E078000204E6F7420646574656374656400B8
:107E0000112484B714BE81FFF0D085E080938100F7
:107E100082E08093C00088E18093C10086E0809377
:107E2000C20080E18093C4008EE0C9D0259A86E02C
:107E300020E33CEF91E0309385002093840096BBD3
:107E4000B09BFECF1D9AA8958150A9F7CC24DD24C4
:107E500088248394B5E0AB2EA1E19A2EF3E0BF2EE7
:107E6000A2D0813461F49FD0082FAFD0023811F036
:107E7000013811F484E001C083E08DD089C08234E0
:107E800011F484E103C0853419F485E0A6D080C0E4
:107E9000853579F488D0E82EFF2485D0082F10E0AE
:107EA000102F00270E291F29000F111F8ED06801E7
:107EB0006FC0863521F484E090D080E0DECF843638
:107EC00009F040C070D06FD0082F6DD080E0C81688
:107ED00080E7D80618F4F601B7BEE895C0E0D1E017
:107EE00062D089930C17E1F7F0E0CF16F0E7DF06D8
:107EF00018F0F601B7BEE89568D007B600FCFDCFD4
:107F0000A601A0E0B1E02C9130E011968C91119780
:107F100090E0982F8827822B932B1296FA010C0160
:107F200087BEE89511244E5F5F4FF1E0A038BF0790
:107F300051F7F601A7BEE89507B600FCFDCF97BE46
:107F4000E89526C08437B1F42ED02DD0F82E2BD052
:107F50003CD0F601EF2C8F010F5F1F4F84911BD097
:107F6000EA94F801C1F70894C11CD11CFA94CF0C13
:107F7000D11C0EC0853739F428D08EE10CD085E9AC
:107F80000AD08FE07ACF813511F488E018D01DD067
:107F900080E101D065CF982F8091C00085FFFCCF94
:107FA0009093C60008958091C00087FFFCCF809118
:107FB000C00084FD01C0A8958091C6000895E0E648
:107FC000F0E098E1908380830895EDDF803219F02E
:107FD00088E0F5DFFFCF84E1DECF1F93182FE3DFCA
:107FE0001150E9F7F2DF1F91089580E0E8DFEE27F6
:047FF000FF270994CA
:027FFE00040479
:00000001FF
